:06000300010900010800E4
:10009A001201117508017FE87E031200FC7508023F
:1000AA007FE87E031200FC7508037FE87E031200D6
:1000BA00FC7508047FE87E031200FC7508057FE8DA
:0700CA007E031200FC80CC54
:03000B000200D11F
:1000D100C0E0C0F0C0D0758A33758CFE0509E50912
:1000E10075F0288485F009E509C395085004D2A06C
:0B00F1008002C2A0D0D0D0F0D0E032DE
:1000FC00EF1FAC0670011E4C600A7D027CEFDCFE2B
:04010C00DDFC80ECAA
:0101100022CC
:100111005389F0438901758A33758CFED2A9C28D4A
:05012100D28CD2AF22D8
:0300000002000EED
:0C000E00787FE4F6D8FD758109020055EA
:10001A0002009AE493A3F8E493A34003F68001F262
:10002A0008DFF48029E493A3F85407240CC8C333E7
:10003A00C4540F4420C8834004F456800146F6DFB6
:10004A00E4800B0102040810204080900003E47E43
:10005A00019360BCA3FF543F30E509541FFEE493AB
:10006A00A360010ECF54C025E060A840B8E493A372
:10007A00FAE493A3F8E493A3C8C582C8CAC583CA9D
:10008A00F0A3C8C582C8CAC583CADFE9DEE780BE55
:0100090000F6
:00000001FF
